{
  "_format": "hh-sol-artifact-1",
  "contractName": "Token",
  "sourceName": "contracts/Token.sol",
  "abi": [
    {
      "inputs": [],
      "stateMutability": "nonpayable",
      "type": "constructor"
    },
    {
      "inputs": [
        {
          "internalType": "address",
          "name": "account",
          "type": "address"
        }
      ],
      "name": "balanceOf",
      "outputs": [
        {
          "internalType": "uint256",
          "name": "",
          "type": "uint256"
        }
      ],
      "stateMutability": "view",
      "type": "function"
    },
    {
      "inputs": [],
      "name": "name",
      "outputs": [
        {
          "internalType": "string",
          "name": "",
          "type": "string"
        }
      ],
      "stateMutability": "view",
      "type": "function"
    },
    {
      "inputs": [],
      "name": "owner",
      "outputs": [
        {
          "internalType": "address",
          "name": "",
          "type": "address"
        }
      ],
      "stateMutability": "view",
      "type": "function"
    },
    {
      "inputs": [],
      "name": "symbol",
      "outputs": [
        {
          "internalType": "string",
          "name": "",
          "type": "string"
        }
      ],
      "stateMutability": "view",
      "type": "function"
    },
    {
      "inputs": [],
      "name": "totalSupply",
      "outputs": [
        {
          "internalType": "uint256",
          "name": "",
          "type": "uint256"
        }
      ],
      "stateMutability": "view",
      "type": "function"
    },
    {
      "inputs": [
        {
          "internalType": "address",
          "name": "to",
          "type": "address"
        },
        {
          "internalType": "uint256",
          "name": "amount",
          "type": "uint256"
        }
      ],
      "name": "transfer",
      "outputs": [],
      "stateMutability": "nonpayable",
      "type": "function"
    }
  ],
  "bytecode": "0x60806040526040518060400160405280600d81526020017f4861726468617420546f6b656e0000000000000000000000000000000000000081525060009080519060200190620000519291906200027e565b506040518060400160405280600381526020017f4848540000000000000000000000000000000000000000000000000000000000815250600190805190602001906200009f9291906200027e565b50612710600255348015620000b357600080fd5b50600254600460003373ffffffffffffffffffffffffffffffffffffffff1673ffffffffffffffffffffffffffffffffffffffff1681526020019081526020016000208190555033600360006101000a81548173ffffffffffffffffffffffffffffffffffffffff021916908373ffffffffffffffffffffffffffffffffffffffff160217905550620001a96040518060400160405280600b81526020017f4f776e6572206973202573000000000000000000000000000000000000000000815250600360009054906101000a900473ffffffffffffffffffffffffffffffffffffffff16620001af60201b6200048f1760201c565b620004b0565b620002518282604051602401620001c892919062000417565b6040516020818303038152906040527f319af333000000000000000000000000000000000000000000000000000000007bffffffffffffffffffffffffffffffffffffffffffffffffffffffff19166020820180517bffffffffffffffffffffffffffffffffffffffffffffffffffffffff83818316178352505050506200025560201b60201c565b5050565b60008151905060006a636f6e736f6c652e6c6f679050602083016000808483855afa5050505050565b8280546200028c906200047a565b90600052602060002090601f016020900481019282620002b05760008555620002fc565b82601f10620002cb57805160ff1916838001178555620002fc565b82800160010185558215620002fc579182015b82811115620002fb578251825591602001919060010190620002de565b5b5090506200030b91906200030f565b5090565b5b808211156200032a57600081600090555060010162000310565b5090565b600081519050919050565b600082825260208201905092915050565b60005b838110156200036a5780820151818401526020810190506200034d565b838111156200037a576000848401525b50505050565b6000601f19601f8301169050919050565b60006200039e826200032e565b620003aa818562000339565b9350620003bc8185602086016200034a565b620003c78162000380565b840191505092915050565b600073ffffffffffffffffffffffffffffffffffffffff82169050919050565b6000620003ff82620003d2565b9050919050565b6200041181620003f2565b82525050565b6000604082019050818103600083015262000433818562000391565b905062000444602083018462000406565b9392505050565b7f4e487b7100000000000000000000000000000000000000000000000000000000600052602260045260246000fd5b600060028204905060018216806200049357607f821691505b60208210811415620004aa57620004a96200044b565b5b50919050565b610b2380620004c06000396000f3fe608060405234801561001057600080fd5b50600436106100625760003560e01c806306fdde031461006757806318160ddd1461008557806370a08231146100a35780638da5cb5b146100d357806395d89b41146100f1578063a9059cbb1461010f575b600080fd5b61006f61012b565b60405161007c9190610728565b60405180910390f35b61008d6101b9565b60405161009a9190610763565b60405180910390f35b6100bd60048036038101906100b891906107e1565b6101bf565b6040516100ca9190610763565b60405180910390f35b6100db610208565b6040516100e8919061081d565b60405180910390f35b6100f961022e565b6040516101069190610728565b60405180910390f35b61012960048036038101906101249190610864565b6102bc565b005b60008054610138906108d3565b80601f0160208091040260200160405190810160405280929190818152602001828054610164906108d3565b80156101b15780601f10610186576101008083540402835291602001916101b1565b820191906000526020600020905b81548152906001019060200180831161019457829003601f168201915b505050505081565b60025481565b6000600460008373ffffffffffffffffffffffffffffffffffffffff1673ffffffffffffffffffffffffffffffffffffffff168152602001908152602001600020549050919050565b600360009054906101000a900473ffffffffffffffffffffffffffffffffffffffff1681565b6001805461023b906108d3565b80601f0160208091040260200160405190810160405280929190818152602001828054610267906108d3565b80156102b45780601f10610289576101008083540402835291602001916102b4565b820191906000526020600020905b81548152906001019060200180831161029757829003601f168201915b505050505081565b61033a6040518060400160405280601f81526020017f2a2a53656e6465722062616c616e636520697320257320746f6b656e732a2a00815250600460003373ffffffffffffffffffffffffffffffffffffffff1673ffffffffffffffffffffffffffffffffffffffff1681526020019081526020016000205461052b565b61035d604051806060016040528060258152602001610ac96025913982846105c7565b80600460003373ffffffffffffffffffffffffffffffffffffffff1673ffffffffffffffffffffffffffffffffffffffff1681526020019081526020016000205410156103df576040517f08c379a00000000000000000000000000000000000000000000000000000000081526004016103d690610951565b60405180910390fd5b80600460003373ffffffffffffffffffffffffffffffffffffffff1673ffffffffffffffffffffffffffffffffffffffff168152602001908152602001600020600082825461042e91906109a0565b9250508190555080600460008473ffffffffffffffffffffffffffffffffffffffff1673ffffffffffffffffffffffffffffffffffffffff168152602001908152602001600020600082825461048491906109d4565b925050819055505050565b61052782826040516024016104a5929190610a2a565b6040516020818303038152906040527f319af333000000000000000000000000000000000000000000000000000000007bffffffffffffffffffffffffffffffffffffffffffffffffffffffff19166020820180517bffffffffffffffffffffffffffffffffffffffffffffffffffffffff8381831617835250505050610666565b5050565b6105c38282604051602401610541929190610a5a565b6040516020818303038152906040527f9710a9d0000000000000000000000000000000000000000000000000000000007bffffffffffffffffffffffffffffffffffffffffffffffffffffffff19166020820180517bffffffffffffffffffffffffffffffffffffffffffffffffffffffff8381831617835250505050610666565b5050565b6106618383836040516024016105df93929190610a8a565b6040516020818303038152906040527fe3849f79000000000000000000000000000000000000000000000000000000007bffffffffffffffffffffffffffffffffffffffffffffffffffffffff19166020820180517bffffffffffffffffffffffffffffffffffffffffffffffffffffffff8381831617835250505050610666565b505050565b60008151905060006a636f6e736f6c652e6c6f679050602083016000808483855afa5050505050565b600081519050919050565b600082825260208201905092915050565b60005b838110156106c95780820151818401526020810190506106ae565b838111156106d8576000848401525b50505050565b6000601f19601f8301169050919050565b60006106fa8261068f565b610704818561069a565b93506107148185602086016106ab565b61071d816106de565b840191505092915050565b6000602082019050818103600083015261074281846106ef565b905092915050565b6000819050919050565b61075d8161074a565b82525050565b60006020820190506107786000830184610754565b92915050565b600080fd5b600073ffffffffffffffffffffffffffffffffffffffff82169050919050565b60006107ae82610783565b9050919050565b6107be816107a3565b81146107c957600080fd5b50565b6000813590506107db816107b5565b92915050565b6000602082840312156107f7576107f661077e565b5b6000610805848285016107cc565b91505092915050565b610817816107a3565b82525050565b6000602082019050610832600083018461080e565b92915050565b6108418161074a565b811461084c57600080fd5b50565b60008135905061085e81610838565b92915050565b6000806040838503121561087b5761087a61077e565b5b6000610889858286016107cc565b925050602061089a8582860161084f565b9150509250929050565b7f4e487b7100000000000000000000000000000000000000000000000000000000600052602260045260246000fd5b600060028204905060018216806108eb57607f821691505b602082108114156108ff576108fe6108a4565b5b50919050565b7f4e6f7420656e6f75676820746f6b656e73000000000000000000000000000000600082015250565b600061093b60118361069a565b915061094682610905565b602082019050919050565b6000602082019050818103600083015261096a8161092e565b9050919050565b7f4e487b7100000000000000000000000000000000000000000000000000000000600052601160045260246000fd5b60006109ab8261074a565b91506109b68361074a565b9250828210156109c9576109c8610971565b5b828203905092915050565b60006109df8261074a565b91506109ea8361074a565b9250827fffffffffffffffffffffffffffffffffffffffffffffffffffffffffffffffff03821115610a1f57610a1e610971565b5b828201905092915050565b60006040820190508181036000830152610a4481856106ef565b9050610a53602083018461080e565b9392505050565b60006040820190508181036000830152610a7481856106ef565b9050610a836020830184610754565b9392505050565b60006060820190508181036000830152610aa481866106ef565b9050610ab36020830185610754565b610ac0604083018461080e565b94935050505056fe2a2a53656e6465722069732073656e64696e6720257320746f6b656e7320746f2025732a2aa26469706673582212204d310eacecfe86d155b774758a49f4b4fcf0abf6eee173ae9e4640556a486a4d64736f6c63430008090033",
  "linkReferences": {},
  "deployedLinkReferences": {}
}